:100000004CC070C06FC06EC06DC06CC06BC06AC0A9
:1000100069C0E2C567C066C065C064C063C062C035
:1000200061C024C65FC0000000003700340031000A
:10003000000000003800350032001F1C1F1E1F1E6C
:100040001F1F1E1F1E1F000000003600330030005F
:10005000040404040404040402020202020203036E
:100060000303030301020408102040800102040876
:100070001020010204081020000000000000000011
:100080000003040600000000000000000003020559
:1000900000030501040602044B0711241FBECFE52F
:1000A000D4E0DEBFCDBF10E0A0E6B0E0EAEBF7E1C0
:1000B00002C005900D92AC3AB107D9F722E0ACEA44
:1000C000B0E001C01D92AF30B207E1F710E0CDE41F
:1000D000D0E003C02197FE0168DBCC34D107D1F713
:1000E000F9D669CB8DCFFC01908190539A3008F0FE
:1000F00090E0818180532AE0929F800D1124089521
:1001000083E487B9369A3699FECF84B195B10895C4
:100110009091D5014423E1F0913061F4E82FF0E0B3
:10012000EB52FE4FA62FB0E0AC58BF4F8C918F77AB
:10013000868308959230E9F7E82FF0E0EB52FE4F06
:10014000A62FB0E0AC58BF4F8C918F778095F0CF41
:10015000913051F4E82FF0E0EB52FE4FA62FB0E0C3
:10016000AC58BF4F8C91E4CF923019F7E82FF0E0F4
:10017000EB52FE4FA62FB0E0AC58BF4F8C91E6CFAC
:100180008091FD009091FE00891B990B08950895C0
:100190000895843041F0863049F0833051F48FB5B2
:1001A0008F778FBD08958FB58F7DFBCF85B58F7D00
:1001B00085BD0895CF93DF93E1E8F0E08491EDE60B
:1001C000F0E0D491E9E5F0E0C491CC2399F08111FD
:1001D000E0DFEC2FF0E0EE0FFF1FEA5BFF4FA59191
:1001E000B491EC91ED2381E090E009F480E0DF919F
:1001F000CF91089580E090E0FACF1F93CF93DF93E3
:10020000282F30E0F901E858FF4F8491F901EC59AB
:10021000FF4FD491F901E05BFF4FC491CC23A1F0D3
:10022000162F8111B6DFEC2FF0E0EE0FFF1FE05D1F
:10023000FF4FA591B4918FB7F894EC91111108C0BC
:10024000D095DE23DC938FBFDF91CF911F9108956E
:10025000DE2BF8CFCF93DF9390E0FC01EC59FF4FFA
:100260002491805B9F4FFC0184918823C9F090E02A
:10027000880F991FFC01EA5DFF4FA591B491FC0125
:10028000E05DFF4FC591D49161110DC09FB7F89407
:100290008C91209582238C938881282328839FBF6B
:1002A000DF91CF910895623051F49FB7F8943C915B
:1002B000822F809583238C93E8812E2BEFCF8FB7ED
:1002C000F894EC912E2B2C938FBFEACFCF93DF9332
:1002D000EC0161E089E0BEDF209729F460E089E06D
:1002E000DF91CF918ACFCF3FD10511F461E0F7CFF5
:1002F000E1E8F0E0E491E43061F0E63081F0E330F1
:1003000099F48FB580688FBDDBBDCABDDF91CF91F9
:1003100008958FB580628FBDD9BDC8BDF7CF85B5B3
:10032000806285BDC3BDF2CFC038D105FCF6D6CF03
:100330003FB7F8948091F5009091F600A091F700F6
:10034000B091F80022B708B600FE05C02F3F19F0A3
:100350000196A11DB11D3FBFBA2FA92F982F882745
:10036000BC01CD01620F711D811D911D42E0660F20
:10037000771F881F991F4A95D1F708958F929F92F2
:10038000AF92BF92CF92DF92EF92FF92D1DF4B01FB
:100390005C0188ECC82ED12CE12CF12CC9DF681946
:1003A00079098A099B09683E734081059105B0F37C
:1003B00021E0C21AD108E108F10888EE880E83E036
:1003C000981EA11CB11CC114D104E104F10431F741
:1003D000FF90EF90DF90CF90BF90AF909F908F9065
:1003E00008952FB7F8946091F1007091F200809118
:1003F000F3009091F4002FBF08952091CD00260FB7
:100400003327331F21323105ECF420919F01FC0189
:1004100090E080E0243069F082E00895A091CD0062
:100420002191AC0143555F4FA40FB52FB11D2C9303
:100430000196861798F38091CD00680F6093CD00E8
:1004400080E0089581E0089510929F0181E08093FB
:100450009E011092790161E082E1CFDE61E083E1EB
:10046000CCDE0898099888E480B985E486BF0895B1
:10047000CF93DF9391E09093AC00882371F0C0B1EB
:10048000D2B186B78A7B86BF60E082E1B6DE60E0EB
:1004900083E1B3DED9DFD2B9C0B9DF91CF9108953E
:1004A000CF92DF92EF92FF920F931F93CF93DF9340
:1004B000D091C80181E0D13208F092C0C091C7014B
:1004C00037DF6B017C0180919F01811165C082E063
:1004D00080939F0181E080939E018FEF80939D0127
:1004E00010929C01D0939B01A7EAB1E0EBE7F1E009
:1004F00080E0D81384C010927A0180917A01CC0FE9
:10050000C82BC0937A0180917901813009F07BC0BA
:10051000109279010DDF6B017C0180917A0183B922
:100520008091A1019091A201A091A301B091A40199
:10053000892B8A2B8B2B91F0FBDE0091A10110916E
:10054000A2012091A3013091A4016C197D098E09AB
:100550009F090617170728073907F0F106B603FCAD
:10056000DCCF85EC86BFE4DE6B017C0180919F01CE
:10057000823009F44AC080919D018F3F09F466C022
:1005800080919D01803209F463C080919D01803388
:1005900009F460C084E024C08091A1019091A2017F
:1005A000A091A301B091A401892B8A2B8B2B09F474
:1005B0008ACFBEDE0091A1011091A2012091A3017A
:1005C0003091A4016C197D098E099F090617170740
:1005D0002807390708F077CF8091A00149DF85E02F
:1005E0001092A6011092C8011092A501DF91CF913F
:1005F0001F910F91FF90EF90DF90CF9008959D9104
:1006000091938F5F76CF85EEADCF8091A1019091D0
:10061000A201A091A301B091A401892B8A2B8B2B5D
:1006200009F4A4CF85DE0091A1011091A2012091CF
:10063000A3013091A4016C197D098E099F09061749
:1006400017072807390708F091CFC6CF80E0C8CF39
:1006500082E0C6CF83E0C4CFCF92DF92EF92FF92C9
:100660000F931F93CF93DF93D82FC62F613208F0DB
:100670008FC05EDE6B017C0180919F01811165C09E
:1006800081E080939F0180939E019FEF90939D0155
:1006900010929C019C0F90939B0180937A01809112
:1006A0007A01DD0FD82BD0937A01809179018130C6
:1006B00009F070C0109279013BDE6B017C018091E2
:1006C0007A0183B98091A1019091A201A091A30127
:1006D000B091A401892B8A2B8B2B99F029DE0091F4
:1006E000A1011091A2012091A3013091A4016C19E4
:1006F0007D098E099F09061717072807390708F48F
:1007000044C006B603FCDBCF85EC86BF11DE6B016F
:100710007C0180919F01813009F43EC080919C0151
:100720008C1710F4C0919C01EBE7F1E0ADE4B1E06F
:1007300080E08C1352C08C2FDF91CF911F910F91CD
:10074000FF90EF90DF90CF9008958091A10190915C
:10075000A201A091A301B091A401892B8A2B8B2B1C
:1007600009F48ACFE5DD0091A1011091A201209149
:10077000A3013091A4016C197D098E099F09061708
:1007800017072807390708F077CF8091A00170DE9E
:10079000C0E0D1CF85EEB9CF8091A1019091A201A7
:1007A000A091A301B091A401892B8A2B8B2B09F472
:1007B000B0CFBEDD0091A1011091A2012091A30153
:1007C0003091A4016C197D098E099F09061717073E
:1007D0002807390708F09DCFD8CF91919D938F5F5F
:1007E000A8CF0895E091FE008091FD00E81730F455
:1007F000F0E0E35BFE4F808190E008958FEF9FEF84
:1008000008959091FE008091FD002FEF3FEF981723
:1008100048F4E92FF0E0E35BFE4F208130E09F5F7A
:100820009093FE00C9010895CF92DF92EF92FF925C
:100830000F931F93CF93DF937C01CB018A0120910B
:10084000A501222389F0EB016B01C40ED51ECC1546
:10085000DD0561F06991D701ED91FC910190F08186
:10086000E02DC7010995F3CF642FC7DDC801DF91E3
:10087000CF911F910F91FF90EF90DF90CF9008954F
:10088000CF93DF931F92CDB7DEB769832091A50187
:100890002223F9F02091C801203258F021E030E005
:1008A000FC013383228390E080E00F90DF91CF91B1
:1008B00008958091A601E82FF0E0E955FE4F998157
:1008C00090838F5F8093A6018093C80181E090E0C0
:1008D000ECCF61E0CE01019690DDF8CF60E089ECCD
:1008E00091E0CECFCF92DF92EF92FF920F931F93C2
:1008F000CF93DF93EC01F62ED42EC22E81E08093AD
:10090000A50188E68093C7011092A6011092C80144
:10091000E5DF1AE08E2D612FFFD68295807F682F4C
:10092000690F89EC91E0ACDF802F612FF5D68295BD
:10093000807F682F690F89EC91E0A2DF8C2D612FF9
:10094000EBD68295807F682F690F89EC91E098DF64
:1009500081E090E022E02F1510F490E080E08E011D
:10096000081B190B8F2D8150990BFC01E457FF4F89
:10097000E49198012D0D311DC801969587959695A6
:100980008795280F391FC80160E971E0D1D6260F7D
:10099000371FC80164E670E0CBD6C901861B970BF0
:1009A0008E0F911D67E070E0C3D6682F811101C0E2
:1009B00067E089EC91E064DFDAE08D2D6D2FACD635
:1009C0008295807F682F690F89EC91E059DF8F2D28
:1009D0006D2FA2D68295807F682F690F89EC91E0F8
:1009E0004FDF8C2F805D6D2F97D68295807F682F8B
:1009F000690F89EC91E044DF71DFDF91CF911F91A6
:100A00000F91FF90EF90DF90CF904ACD90E080E083
:100A100008958F929F92AF92BF92EF92FF920F93A1
:100A20001F93CF938C014A015B01C0E0EE24E39455
:100A3000F12CF8018089C817F0F42C2F30E0C701A1
:100A40000C2E02C0880F991F0A94E2F7092E000CA1
:100A5000AA0BBB0B88219921AA21BB2161E0892B1C
:100A60008A2B8B2B09F460E0200F311FF901808164
:100A7000C4DBCF5FDECFCF911F910F91FF90EF903E
:100A8000BF90AF909F908F900895EF92FF921F9329
:100A9000CF93DF9310E0C1E0D0E08091D60118172A
:100AA00008F05FC0E12EF12CF701EB52FE4F4681BA
:100AB00050E070E060E08DEF91E0ABDF8091D50118
:100AC000813061F4AE01012E01C0440F0A94EAF7AF
:100AD00050E070E060E08BEE91E09BDF8091D5010B
:100AE000823061F4AE0101C0440FEA94EAF7409508
:100AF00050E070E060E08BEE91E08BDF8091D701F9
:100B00009091D8018230910538F0880F991F880F95
:100B1000991F05970197F1F78091D501813031F444
:100B200040E050E0BA018BEE91E073DF8091D50197
:100B3000823039F44FEF50E060E070E08BEE91E0EE
:100B400068DF8091D9019091DA018230910538F007
:100B5000880F991F880F991F05970197F1F71F5F5D
:100B60009CCFDF91CF911F91FF90EF90089585ED7D
:100B700086BF8091A1019091A201A091A301B091A3
:100B8000A4010796A11DB11D23E0B695A7959795E1
:100B900087952A95D1F706B604FC03C010929F01F1
:100BA00008954091A1015091A2016091A30170911B
:100BB000A401452B462B472B71F30097A105B105E6
:100BC00041F025E32A95F1F700000197A109B10949
:100BD000E2CF8091A0014CCC1F920F920FB60F92E2
:100BE00011242F933F938F939F93AF93BF93809143
:100BF000F1009091F200A091F300B091F4003091D7
:100C0000F00023E0230F2D3758F50196A11DB11DEB
:100C10002093F0008093F1009093F200A093F300F2
:100C2000B093F4008091F5009091F600A091F70048
:100C3000B091F8000196A11DB11D8093F50090932D
:100C4000F600A093F700B093F800BF91AF919F9189
:100C50008F913F912F910F900FBE0F901F9018957D
:100C600026E8230F0296A11DB11DD2CF1F920F922D
:100C70000FB60F9211242F933F934F935F936F936F
:100C80007F938F939F93AF93BF93EF93FF9381B124
:100C9000887F803609F449C0E8F5883209F4A2C09B
:100CA00018F5803109F498C0B8F4882309F4F0C02D
:100CB000883009F491C0FF91EF91BF91AF919F915E
:100CC0008F917F916F915F914F913F912F910F90F5
:100CD0000FBE0F901F901895883109F483C08032A1
:100CE00051F780939D0114C0803409F497C040F4FB
:100CF0008033B9F38833F9F680939D0185ECA9C060
:100D0000803509F480C0883509F490C0883499F69C
:100D10002EDFD1CF883909F487C030F5883729F024
:100D200050F4883611F0803731F683E080939F01CC
:100D30001092EF0054C0883809F476C0803919F059
:100D4000803809F0B8CF8091EF00803208F06CC095
:100D5000E091EF0081E08E0F8093EF0083B1F0E02F
:100D6000E153FF4F80833BC0803B39F0E0F4803A91
:100D700009F473C0883A09F09ECF84E080939F0104
:100D80001092CE001092CD00E091FB00F091FC009B
:100D900009958091CD0081110FC081E08093CD0035
:100DA0001092AD0009C0803C09F4A8CF883C09F43A
:100DB000A5CF883B09F07FCFE091CE0081E08E0F78
:100DC0008093CE00F0E0E355FF4F808183B990918E
:100DD000CE008091CD0026C080917A0183B985EC48
:100DE00086BF69CF90919C0180919B01981748F52F
:100DF000E0919C0181E08E0F80939C01F0E0E5582A
:100E0000FE4F8081EBCFE0919C0181E08E0F8093BB
:100E10009C0183B1F0E0E558FE4F808390919C01E6
:100E200080919B019817D8F285E8DACFE0919C0178
:100E300081E08E0F80939C0183B1F0E0E558FE4F76
:100E4000808380919E01811163CF81E0809379013D
:100E500084EA86BF10929F012ECF85EC86BF109248
:100E60009F018091EF00803230F4E091EF00F0E0DC
:100E7000E153FF4F10826091EF0070E0E091F900C4
:100E8000F091FA008FEC90E009951092EF0013CFEB
:100E900010929D013DCFE9ECF1E01382128288EEC1
:100EA00093E0A0E0B0E084839583A683B78388E8CD
:100EB00090E091838083E5EDF1E081E0808388E03C
:100EC000818380ED97E09383828381E090E0958336
:100ED00084830895CF93DF93CDB7DEB76B970FB6BA
:100EE000F894DEBF0FBECDBF789483B7826083BF16
:100EF00083B7816083BF89B7816089BF1EBC8EB50F
:100F000082608EBD8EB581608EBD8FB581608FBDD4
:100F100085B5846085BD85B5806485BD329A319A7A
:100F2000309A379A1AB81092FE001092A6011092C9
:100F3000C8018ADA87EC90E09093FC008093FB0074
:100F400088EC90E09093FA008093F90080ED97E0B0
:100F500090936E0180936D0181E080936F01809387
:100F6000700110927101109272011092730196E05B
:100F70009093740140E755E36DE678E34093750183
:100F80005093760160937701709378018093A50167
:100F900088E68093C701A2DC83DA61E088E65CDB47
:100FA0008093FD00811101C0FFCF89EC91E029DC25
:100FB000182F76DA17FF1DC08FE990E094D8182F0C
:100FC0008AE990E090D8F82E82EA90E08CD8D82E6A
:100FD00085EA90E088D8082F88EA90E084D8E12F4D
:100FE000F0E0E82E2D2D4F2D61E0CF018053984F7A
:100FF00079DC8091D6018131C8F48093FB0181E0D6
:101000008093FC0110E08091FB01181788F4212FD8
:1010100030E0F901E859FF4F80812B523E4FF90132
:10102000868B6091FC0116D91F5FEDCF80E1E5CF83
:1010300088E080930D0281E080930E0210E08091A1
:101040000D02181780F02091D6019091D501E5EDA1
:10105000F1E080E03FEF2817C9F0913099F4368332
:101060008F5F3196F8CF212F30E0F901E05AFF4F22
:1010700080812B523E4FF90180A760910E02EAD881
:101080001F5FDDCF923061F71682EACF60E080917A
:101090006800B3D861E089E0DDD88091D501813066
:1010A000C1F487EA8093DB0193EE9093DC019FEA21
:1010B0009093DD0197E89093DE0193EA9093DF012E
:1010C0008093E0018BEF8093E10183E88093E2015C
:1010D00002C0823031F314E6D8DC1150E9F790E019
:1010E00080E005D3809372006AE0762E70E4572E7C
:1010F000662463945FEB452E6092A501F8E6F093B9
:10110000C7011092A6011092C801E8DBC9D967E0B7
:1011100088E6A2DA1092FE008093FD00811101C0E2
:10112000FFCFBE016F5F7F4F7B0106E010E089ECCF
:1011300091E003301105C1F564DB98878F8301507E
:101140001109F2E0EF1AF1080F3F100781F7A8D953
:1011500089809A80640160E3C61A68EFD60AD0924B
:101160006E01C0926D011B8110936F01AD80BE8036
:10117000AB8EA09270018F8180937401F984F092FC
:1011800071010B8500937201ED84E0927301C5013A
:101190009927EAE3F0E021E0211798F43491830FD6
:1011A000911D2F5F3196F8CF2CDB982F92959F7071
:1011B0008F70979D800D112490E0F70195878487AB
:1011C000BECF123031F4940123703327232B09F45E
:1011D000019696012D5C37403695279536952795D3
:1011E000EDE6F1E08E9EA0018F9E500D9E9E500D6B
:1011F0001124240F351F21503109280F391FA8E170
:10120000B0E0BDD29B01AC012F0D311D411D511D20
:10121000ACE3B0E0C0D29B01AC01200F311D411DF9
:10122000511DB9D26E0D711D811D911D60597A4CF1
:101230008249974C60937501709376018093770192
:10124000909378018CE0EDE6F1E0DE011F960190CD
:101250000D928A95E1F78CE0FE013F96A1E4B1E0A2
:1012600001900D928A95E1F74BD745970CF046C057
:10127000809140018111B2C08F2D672D4DD240E089
:10128000682F87E045D730903F0141E0F3E03F12FF
:1012900040E08F2D672D40D2692F86E039D78091AD
:1012A000D501813009F08EC04092E001802F672D7A
:1012B00033D240E0682F84E02BD741E022E03212A5
:1012C00040E0802F672D28D2692F83E021D78091BD
:1012D000D501813009F07CC04092DD018E2D672D53
:1012E0001BD240E0682F81E013D741E0341240E088
:1012F0008E2D672D11D2692F80E00AD701D78C3748
:1013000091406CF0FDD6843492404CF480914001C1
:1013100090E0019681709927809340012FD8F0D6F4
:10132000883A92406CF0ECD6843893404CF480912B
:101330003F0190E001968370992780933F011ED86A
:10134000DFD68436910594F0DBD68E35914074F467
:1013500080913F01813009F48FC008F487C082304A
:1013600009F4A8C0833009F4B9C008D8C9D68434B8
:1013700092409CF010917200C3D6883A92406CF46F
:10138000812F90E0019666E070E0E6D180937200D4
:10139000682F90E080E0B3D1F1D780917200823065
:1013A00009F4F3C008F0AEC0882309F4E6C0813028
:1013B00009F4E7C06ADB80E090E0892B09F49CCE59
:1013C0001FD696CE823009F071CF5092E0016ECFD9
:1013D000823009F083CF5092DD0180CF813009F057
:1013E0008DCF30903F0141E0341240E0C4016AE00B
:1013F00070E09ED1262E682F80E08AD640E0622DD4
:1014000081E086D68091D501813031F54092DD01B1
:1014100041E062E0361240E0812F672D7DD1282E19
:10142000692F83E075D640E0622D84E071D680910B
:10143000D5018130B1F44092E00141E073E0371210
:1014400040E08B8D672D68D1382E692F86E060D6FD
:1014500040E0632D87E051CF8230D1F65092DD011C
:10146000D7CF823051F75092E001E7CF80917300DF
:101470008C5E8093730079CF8091400181110AC006
:101480009AE39E1510F081E08E0DE82E2F2D4A2D47
:10149000612F22C0813009F068CFC6010196E3E6D2
:1014A0008E16910410F080ED97E02F2D4A2D612FBC
:1014B00019DA5BCF60914001611106C00B3310F463
:1014C00061E0600F062FE2CF613009F04ECF1C3093
:1014D00008F4610F2F2D4A2DC601EACF409140013B
:1014E000411107C0F6E1FF1510F041E04F0D242F28
:1014F000CECF413009F039CF2B8D2F3108F44A0D72
:101500002F2DC6CF843009F4D9C008F482C08530AD
:1015100009F050CF8091030181110BC062D7609315
:10152000FF0070930001809301019093020160928B
:10153000030157D70091FF00109100012091010194
:1015400030910201601B710B820B930B63337105A9
:101550008105910508F42ECF2DD661E0892B09F085
:1015600060E089E04AD63DD76093FF0070930001A8
:1015700080930101909302011DCF90E080E0A6D6F8
:1015800019CF8091730090E0FACF8091470190913C
:101590003701911104C08093360160923701909118
:1015A0003601891721F01092350180933601809120
:1015B0002D0181110BC015D76093290170932A0169
:1015C00080932B0190932C0160922D010AD70091FA
:1015D000290110912A0120912B0130912C01601BCF
:1015E000710B820B930B6B3071058105910570F0C7
:1015F000809135018E5F80933501F3D66093290188
:1016000070932A0180932B0190932C0180913501D6
:10161000BACF8091470190912101911104C080932C
:1016200020016092210190912001891749F091E0F9
:1016300020917100211190E090937100809320011E
:101640008091180181110BC0CCD660931401709366
:101650001501809316019093170160921801C1D66D
:10166000009114011091150120911601309117017C
:10167000601B710B820B930B6B307105810591051B
:10168000A8F08091700090917100992391F0813DB4
:1016900008F080ED8E5F80937000A3D660931401F4
:1016A000709315018093160190931701809170003B
:1016B0006ACF8C3008F48CE08250EDCF1091470156
:1016C00080910C01811104C010930B0160920C01F8
:1016D00080910B01181709F46DCE6CD561E0892B50
:1016E00009F060E089E089D510930B0163CEE199A0
:1016F000FECF9FBB8EBBE09A99278DB30895262F0E
:10170000E199FECF9FBB8EBB2DBB0FB6F894E29A3A
:10171000E19A0FBE01960895991B79E004C0991FC4
:10172000961708F0961B881F7A95C9F7809508953B
:10173000AA1BBB1B51E107C0AA1FBB1FA617B707F7
:1017400010F0A61BB70B881F991F5A95A9F7809513
:101750009095BC01CD01089597FB072E16F40094D7
:1017600006D077FD08D0E4DF07FC05D03EF4909565
:1017700081959F4F0895709561957F4F0895A29F21
:10178000B001B39FC001A39F01D0B29F700D811D16
:101790001124911D0895F3DFA59F900DB49F900D26
:1017A000A49F800D911D11240895EE0FFF1F059039
:0A17B000F491E02D0994F894FFCFA6
:1017BA00100F0E0D0C0B0A080001020304050607A0
:1017CA0004010132C0F9A4B0999282F8809088830A
:1017DA00C6A1868E00000000400414040605F10329
:1017EA00C0000104F2034A616E20323320323032E3
:0C17FA00320032313A35383A3333000007
:00000001FF
