:100000000C946E000C9496000C9496000C94960040
:100010000C9496000C9496000C9496000C94960008
:100020000C9496000C9496000C9496000C949600F8
:100030000C9496000C9496000C9496000C949600E8
:100040000C94A2060C9496000C9496000C949600C6
:100050000C9496000C9496000C9496000C949600C8
:100060000C94EC060C94960000000000240027007D
:100070002A0000000000250028002B001F1C1F1E66
:100080001F1E1F1F1E1F1E1F000000002300260032
:10009000290004040404040404040202020202020B
:1000A000030303030303010204081020408001023C
:1000B00004081020010204081020000000080002BB
:1000C000010000030407000000000000000000031E
:1000D000020500030501040602040B0811241FBEDB
:1000E000CFEFD8E0DEBFCDBF11E0A0E0B1E0ECE2A1
:1000F000FAE102C005900D92AC34B107D9F722E0C5
:10010000ACE4B1E001C01D92AF3AB207E1F710E0F4
:10011000CEE6D0E004C02197FE010E940E0DCD3640
:10012000D107C9F70E942A080C94140D0C94000002
:10013000FC01908190539A3008F090E081818053C7
:100140002AE0929F800D1124089583E480937C001F
:1001500080917A00806480937A0080917A0086FD95
:10016000FCCF80917800909179000895909175026C
:100170004423E1F0913061F4E82FF0E0EB58FD4FBB
:10018000A62FB0E0AC5EBE4F8C918F77868308952A
:100190009230E9F7E82FF0E0EB58FD4FA62FB0E0E2
:1001A000AC5EBE4F8C918F778095F0CF913051F43B
:1001B000E82FF0E0EB58FD4FA62FB0E0AC5EBE4F4D
:1001C0008C91E4CF923019F7E82FF0E0EB58FD4F17
:1001D000A62FB0E0AC5EBE4F8C91E6CF80919D0122
:1001E00090919E01891B990B08950895089583307D
:1001F00081F028F4813099F08230A9F00895873099
:10020000A9F08830C9F08430B1F4809180008F7DEE
:1002100003C0809180008F7780938000089584B51B
:100220008F7784BD089584B58F7DFBCF8091B0001A
:100230008F778093B00008958091B0008F7DF9CFC3
:10024000CF93DF93E3ECF0E08491EFEAF0E0D49118
:10025000EBE9F0E0C491CC23A1F081110E94F700FA
:10026000EC2FF0E0EE0FFF1FE857FF4FA591B49180
:10027000EC91ED2381E090E009F480E0DF91CF91F3
:10028000089580E090E0FACF1F93CF93DF93282F5B
:1002900030E0F901E654FF4F8491F901EA55FF4F30
:1002A000D491F901EE56FF4FC491CC23A9F0162F3B
:1002B00081110E94F700EC2FF0E0EE0FFF1FEE58C7
:1002C000FF4FA591B4918FB7F894EC91111108C02C
:1002D000D095DE23DC938FBFDF91CF911F910895DE
:1002E000DE2BF8CFCF93DF9390E0FC01EA55FF4F70
:1002F00024918E569F4FFC0184918823C9F090E091
:10030000880F991FFC01E859FF4FA591B491FC019A
:10031000EE58FF4FC591D49161110DC09FB7F8946D
:100320008C91209582238C938881282328839FBFDA
:10033000DF91CF910895623051F49FB7F8943C91CA
:10034000822F809583238C93E8812E2BEFCF8FB75C
:10035000F894EC912E2B2C938FBFEACFCF93DF93A1
:10036000EC0161E089E00E947201209731F460E0C5
:1003700089E0DF91CF910C944401CF3FD10511F476
:1003800061E0F6CFE3ECF0E0E491E33029F140F4F2
:10039000E130B1F0E230D9F0C038D1058CF7E7CFC9
:1003A000E73021F1E83051F1E430B1F7809180007D
:1003B000806280938000D0938B00C0938A0004C039
:1003C00084B5806884BDC7BDDF91CF91089584B5A1
:1003D000806284BDC8BDF8CF809180008068809322
:1003E0008000D0938900C0938800EECF8091B00048
:1003F00080688093B000C093B300E6CF8091B000D6
:1004000080628093B000C093B400DECF3FB7F89411
:100410008091950190919601A0919701B0919801DA
:1004200026B5A89B05C02F3F19F00196A11DB11D4F
:100430003FBFBA2FA92F982F8827BC01CD01620F8B
:10044000711D811D911D42E0660F771F881F991F46
:100450004A95D1F708958F929F92AF92BF92CF9213
:10046000DF92EF92FF920E9406024B015C0188EC42
:10047000C82ED12CE12CF12C0E94060268197909B2
:100480008A099B09683E734081059105A8F321E024
:10049000C21AD108E108F10888EE880E83E0981EA0
:1004A000A11CB11CC114D104E104F10429F7FF908F
:1004B000EF90DF90CF90BF90AF909F908F90089576
:1004C0002FB7F894609191017091920180919301FE
:1004D000909194012FBF089520916D01260F33272D
:1004E000331F21323105ECF420913F02FC0190E0F2
:1004F00080E0243069F082E00895A0916D0121919F
:10050000AC01435B5E4FA40FB52FB11D2C93019638
:10051000861798F380916D01680F60936D0180E0FC
:10052000089581E0089510923F0281E080933E0299
:100530001092190261E082E10E94440161E083E1CE
:100540000E944401E9EBF0E080818E7F808380810E
:100550008D7F808388E48093B80085E48093BC001D
:100560000895CF93DF9391E090934C018823B9F0E5
:10057000C091B800D091BA008091BC008A7B809372
:10058000BC0060E082E10E94440160E083E10E94DF
:1005900044010E949302D093BA00C093B800DF9147
:1005A000CF910895CF92DF92EF92FF920F931F9316
:1005B000CF93DF93D091680281E0D13208F09CC0E4
:1005C000C09167020E9406026B017C0180913F028C
:1005D00081116CC082E080933F0281E080933E02F3
:1005E0008FEF80933D0210923C02D0933B02A7E430
:1005F000B2E0EBE1F2E080E0D8138DC010921A0275
:1006000080911A02CC0FC82BC0931A028091190254
:10061000813009F084C0109219020E9406026B0119
:100620007C0180911A028093BB00809141029091DD
:100630004202A0914302B0914402892B8A2B8B2B5A
:10064000A1F00E9406020091410210914202209105
:100650004302309144026C197D098E099F090617E7
:1006600017072807390708F442C08091BC0083FDB2
:10067000D8CF85EC8093BC000E9406026B017C0100
:1006800080913F02823009F44CC080913D028F3F3F
:1006900009F469C080913D02803209F466C08091FE
:1006A0003D02803309F463C084E026C0809141029A
:1006B00090914202A0914302B0914402892B8A2B6F
:1006C0008B2B09F483CF0E94060200914102109106
:1006D000420220914302309144026C197D098E0937
:1006E0009F09061717072807390708F06FCF809171
:1006F00040020E94B10285E0109246021092680208
:1007000010924502DF91CF911F910F91FF90EF90D2
:10071000DF90CF9008959D9191938F5F6DCF85EE7F
:10072000A9CF8091410290914202A0914302B091E1
:100730004402892B8A2B8B2B09F4A2CF0E9406023C
:1007400000914102109142022091430230914402F3
:100750006C197D098E099F090617170728073907A5
:1007600008F08ECFC4CF80E0C7CF82E0C5CF83E052
:10077000C3CFCF92DF92EF92FF920F931F93CF934D
:10078000DF93D82FC62F613208F098C00E9406026E
:100790006B017C0180913F0281116BC081E08093ED
:1007A0003F0280933E029FEF90933D0210923C02E5
:1007B0009C0F90933B0280931A0280911A02DD0FE6
:1007C000D82BD0931A0280911902813009F078C099
:1007D000109219020E9406026B017C0180911A029C
:1007E0008093BB008091410290914202A09143020C
:1007F000B0914402892B8A2B8B2BA1F00E94060218
:100800000091410210914202209143023091440232
:100810006C197D098E099F090617170728073907E4
:1008200008F448C08091BC0083FDD8CF85EC80934C
:10083000BC000E9406026B017C0180913F02813066
:1008400009F440C080913C028C1710F4C0913C0226
:10085000EBE1F2E0ADEEB1E080E08C1355C08C2FFF
:10086000DF91CF911F910F91FF90EF90DF90CF908C
:1008700008958091410290914202A0914302B0916B
:100880004402892B8A2B8B2B09F484CF0E94060209
:1008900000914102109142022091430230914402A2
:1008A0006C197D098E099F09061717072807390754
:1008B00008F070CF809140020E94B102C0E0CFCF1B
:1008C00085EEB5CF8091410290914202A091430202
:1008D000B0914402892B8A2B8B2B09F4AECF0E9456
:1008E0000602009141021091420220914302309190
:1008F00044026C197D098E099F09061717072807FE
:10090000390708F09ACFD6CF91919D938F5FA5CFED
:100910000895E0919E0180919D01E81730F4F0E088
:10092000E351FE4F808190E008958FEF9FEF08958F
:1009300090919E0180919D012FEF3FEF981748F411
:10094000E92FF0E0E351FE4F208130E09F5F90936C
:100950009E01C9010895CF92DF92EF92FF920F930B
:100960001F93CF93DF937C01CB018A012091450235
:10097000222389F0EB016B01C40ED51ECC15DD05D9
:1009800069F06991D701ED91FC910190F081E02D22
:10099000C7010995F3CF642F0E946C02C801DF9153
:1009A000CF911F910F91FF90EF90DF90CF9008951E
:1009B000CF93DF931F92CDB7DEB7698320914502B5
:1009C0002223F9F020916802203258F021E030E033
:1009D000FC013383228390E080E00F90DF91CF9180
:1009E000089580914602E82FF0E0E95BFD4F998180
:1009F00090838F5F809346028093680281E090E04D
:100A0000ECCF61E0CE0101960E946C02F7CF60E06E
:100A100089E692E00C94D804CF92DF92EF92FF9295
:100A20000F931F93CF93DF93EC01F62ED42EC22E9B
:100A300081E08093450288E6809367021092460227
:100A4000109268020E9407051AE08E2D612F0E9405
:100A5000C00C8295807F682F690F89E692E00E9422
:100A6000D804802F612F0E94C00C8295807F682F50
:100A7000690F89E692E00E94D8048C2D612F0E94B4
:100A8000C00C8295807F682F690F89E692E00E94F2
:100A9000D80481E090E022E02F1510F490E080E08F
:100AA0008E01081B190B8F2D8150990BFC01E2530D
:100AB000FF4FE49198012D0D311DC8019695879542
:100AC00096958795280F391FC80160E971E00E944B
:100AD000CC0C260F371FC80164E670E00E94CC0CD6
:100AE000C901861B970B8E0F911D67E070E00E9475
:100AF000CC0C682F811101C067E089E692E00E946A
:100B0000D804DAE08D2D6D2F0E94C00C8295807F75
:100B1000682F690F89E692E00E94D8048F2D6D2F0F
:100B20000E94C00C8295807F682F690F89E692E051
:100B30000E94D8048C2F805D6D2F0E94C00C82957E
:100B4000807F682F690F89E692E00E94D8040E9496
:100B50000705DF91CF911F910F91FF90EF90DF90EC
:100B6000CF900C94D20290E080E008958F929F92F3
:100B7000AF92BF92EF92FF920F931F93CF938C018E
:100B80004A015B01C0E0EE24E394F12CF801808976
:100B9000C817F8F42C2F30E0C7010C2E02C0880FC4
:100BA000991F0A94E2F7092E000CAA0BBB0B8821AF
:100BB0009921AA21BB2161E0892B8A2B8B2B09F477
:100BC00060E0200F311FF90180810E944401CF5F56
:100BD000DDCFCF911F910F91FF90EF90BF90AF901D
:100BE0009F908F900895EF92FF921F93CF93DF9382
:100BF00010E0C1E0D0E080917602181708F064C0E0
:100C0000E12EF12CF701EB58FD4F468150E070E0EA
:100C100060E08DE992E00E94B60580917502813016
:100C200069F4AE01012E01C0440F0A94EAF750E0C6
:100C300070E060E08BE892E00E94B605809175025A
:100C4000823069F4AE0101C0440FEA94EAF740959E
:100C500050E070E060E08BE892E00E94B605809181
:100C60007702909178028230910538F0880F991FB1
:100C7000880F991F05970197F1F7809175028130D0
:100C800039F440E050E0BA018BE892E00E94B605EA
:100C900080917502823041F44FEF50E060E070E0E7
:100CA0008BE892E00E94B6058091790290917A02D9
:100CB0008230910538F0880F991F880F991F05978A
:100CC0000197F1F71F5F97CFDF91CF911F91FF90B1
:100CD000EF90089585ED8093BC0080914102909142
:100CE0004202A0914302B09144020796A11DB11D9A
:100CF00023E0B695A795979587952A95D1F72091EA
:100D0000BC0024FD03C010923F02089540914102AF
:100D1000509142026091430270914402452B462B50
:100D2000472B69F30097A105B10541F025E32A950A
:100D3000F1F700000197A109B109E1CF80914002CC
:100D40000C94B1021F920F920FB60F9211242F93A1
:100D50003F938F939F93AF93BF9380919101909115
:100D60009201A0919301B09194013091900123E000
:100D7000230F2D3758F50196A11DB11D2093900129
:100D80008093910190939201A0939301B093940169
:100D90008091950190919601A0919701B091980151
:100DA0000196A11DB11D8093950190939601A0938A
:100DB0009701B0939801BF91AF919F918F913F910F
:100DC0002F910F900FBE0F901F90189526E8230FBC
:100DD0000296A11DB11DD2CF1F920F920FB60F9296
:100DE00011242F933F934F935F936F937F938F9330
:100DF0009F93AF93BF93EF93FF938091B900887F48
:100E0000803609F44AC0F0F5883209F4A7C018F515
:100E1000803109F49BC0B8F4882309F4F9C0883004
:100E200009F494C0FF91EF91BF91AF919F918F9181
:100E30007F916F915F914F913F912F910F900FBED6
:100E40000F901F901895883109F488C0803251F7AF
:100E500080933D0214C0803409F49DC040F4803377
:100E6000B9F38833F9F680933D0285ECB0C0803544
:100E700009F485C0883509F496C0883499F60E9433
:100E80006A06D0CF883909F48CC038F5883729F044
:100E900050F4883611F0803729F683E080933F02C2
:100EA00010928F0157C0883809F47BC0803919F03F
:100EB000803809F0B7CF80918F01803208F071C07F
:100EC000E0918F0181E08E0F80938F018091BB00B4
:100ED000F0E0E159FE4F80833DC0803B39F0E0F403
:100EE000803A09F479C0883A09F09CCF84E0809375
:100EF0003F0210926E0110926D01E0919B01F09102
:100F00009C01099580916D0181110FC081E0809352
:100F10006D0110924D0109C0803C09F4A6CF883CB8
:100F200009F4A3CF883B09F07DCFE0916E0181E009
:100F30008E0F80936E01F0E0E35BFE4F8081809323
:100F4000BB0090916E0180916D0129C080911A02C1
:100F50008093BB0085EC8093BC0064CF90913C02F1
:100F600080913B02981758F5E0913C0281E08E0F8A
:100F700080933C02F0E0E55EFD4F8081E9CFE09197
:100F80003C0281E08E0F80933C028091BB00F0E038
:100F9000E55EFD4F808390913C0280913B02981763
:100FA000C8F285E8D8CFE0913C0281E08E0F8093B3
:100FB0003C028091BB00F0E0E55EFD4F80838091B4
:100FC0003E0281115CCF81E08093190284EA809314
:100FD000BC0010923F0226CF85EC8093BC0010929B
:100FE0003F0280918F01803230F4E0918F01F0E078
:100FF000E159FE4F108260918F0170E0E0919901FC
:10100000F0919A018FE691E0099510928F010ACF35
:1010100010923D0234CFE9E6F2E01382128288EEAC
:1010200093E0A0E0B0E084839583A683B78388E251
:1010300091E091838083E5E7F2E081E0808388E0BE
:10104000818380ED97E09383828381E090E09583B4
:1010500084830895CF93DF93CDB7DEB76B970FB638
:10106000F894DEBF0FBECDBF789484B5826084BD96
:1010700084B5816084BD85B5826085BD85B581609C
:1010800085BD80916E00816080936E00109281001A
:1010900080918100826080938100809181008160D5
:1010A0008093810080918000816080938000809196
:1010B000B10084608093B1008091B0008160809322
:1010C000B00080917A00846080937A0080917A00E9
:1010D000826080937A0080917A00816080937A00A8
:1010E00080917A00806880937A001092C1001092FB
:1010F0009E0110924602109268020E94930285EFB0
:1011000090E090939C0180939B0186EF90E09093F8
:101110009A018093990180ED97E090930E0280935D
:101120000D0281E080930F02809310021092110251
:10113000109212021092130296E09093140240E76C
:1011400055E36DE678E340931502509316026093E1
:101150001702709318028093450288E68093670215
:101160000E9407050E94D20261E088E60E94B9034E
:1011700080939D01811101C0FFCF89E692E00E941A
:101180009804182F0E94D20217FF23C08FE391E02A
:101190000E949800182F8AE391E00E949800F82E90
:1011A00082E491E00E949800D82E85E491E00E94AC
:1011B0009800082F88E491E00E949800E12FF0E069
:1011C000E82E2D2D4F2D61E0CF018053984F0E94C6
:1011D0000C05809176028131D0F480939B0281E0EE
:1011E00080939C0210E080919B02181790F4212FAD
:1011F00030E0F901E85FFE4F80812B583D4FF90147
:10120000868B60919C020E9472011F5FECCF80E18F
:10121000E4CF88E08093AD0281E08093AE0210E0DD
:101220008091AD02181780F020917602909175029E
:10123000E5E7F2E080E03FEF2817D1F09130A1F42C
:1012400036838F5F3196F8CF212F30E0F901E050DF
:10125000FF4F80812B583D4FF90180A76091AE026E
:101260000E9472011F5FDCCF923059F71682E9CFDE
:1012700060E0809108010E94440161E089E00E94E1
:101280007201809175028130C1F487EA80937B02FC
:1012900093EE90937C029FEA90937D0297E890935F
:1012A0007E0293EA90937F02809380028BEF80937B
:1012B000810283E88093820202C0823031F314E617
:1012C0000E94F3051150E1F790E080E00E94AA0C23
:1012D000809312016AE0762E70E4572E66246394A0
:1012E0005FEB452E60924502F8E6F093670210929C
:1012F0004602109268020E9407050E94D20267E02F
:1013000088E60E94B90310929E0180939D0181118D
:1013100001C0FFCFBE016F5F7F4F7B0106E010E091
:1013200089E692E003301105D1F50E949804988770
:101330008F8301501109F2E0EF1AF1080F3F1007F7
:1013400079F70E94D20289809A80640160E3C61A0C
:1013500068EFD60AD0920E02C0920D021B81109344
:101360000F02AD80BE80AB8EA09210028F81809361
:101370001402F984F09211020B8500931202ED849D
:10138000E0921302C5019927ECE7F0E021E0211774
:10139000A0F43491830F911D2F5F3196F8CF0E94F6
:1013A0009804982F92959F708F70979D800D1124AF
:1013B00090E0F70195878487BCCF123031F4940117
:1013C00023703327232B09F4019696012D5C3740B7
:1013D0003695279536952795EDE6F1E08E9EA0018E
:1013E0008F9E500D9E9E500D1124240F351F2150AD
:1013F0003109280F391FA8E1B0E00E94F40C9B01CD
:10140000AC012F0D311D411D511DACE3B0E00E9418
:10141000030D9B01AC01200F311D411D511D0E9488
:10142000030D6E0D711D811D911D60597A4C82490D
:10143000974C609315027093160280931702909355
:1014400018028CE0EDE0F2E0DE011F9601900D92B3
:101450008A95E1F78CE0FE013F96A1EEB1E00190A4
:101460000D928A95E1F70E94A50045970CF052C0B5
:101470008091E0018111CEC08F2D672D0E94C00C9C
:1014800040E0682F87E00E94B6003090DF0141E025
:10149000F3E03F1240E08F2D672D0E94C00C692FB2
:1014A00086E00E94B60080917502813009F0A6C0E6
:1014B00040928002802F672D0E94C00C40E0682F70
:1014C00084E00E94B60041E022E0321240E0802F2A
:1014D000672D0E94C00C692F83E00E94B6008091A6
:1014E0007502813009F090C040927D028E2D672DEB
:1014F0000E94C00C40E0682F81E00E94B60041E0ED
:10150000341240E08E2D672D0E94C00C692F80E0C0
:101510000E94B6000E94A5008C3791407CF00E948A
:10152000A5008434924054F48091E00190E001964B
:10153000817099278093E0010E942B020E94A500F0
:10154000883A92407CF00E94A5008438934054F47D
:101550008091DF0190E00196837099278093DF01ED
:101560000E942B020E94A50084369105A4F00E94DF
:10157000A5008E3591407CF48091DF01813009F423
:101580009FC008F497C0823009F4B9C0833009F4D1
:10159000CAC00E942B020E94A50084349240BCF075
:1015A000109112010E94A500883A924084F4812F84
:1015B00090E0019666E070E00E94E00C80931201DA
:1015C000682F90E080E00E94B20C0E942B02809174
:1015D0001201823009F404C108F0B9C0882309F46B
:1015E000F6C0813009F4F8C00E94F30580E090E075
:1015F000892B09F477CE0E94000070CE823009F06A
:1016000059CF5092800256CF823009F06FCF50925E
:101610007D026CCF813009F07DCF3090DF0141E059
:10162000341240E0C4016AE070E00E94CC0C262E27
:10163000682F80E00E94B60040E0622D81E00E94A9
:10164000B60080917502813059F540927D0241E0EB
:1016500062E0361240E0812F672D0E94C00C282ED8
:10166000692F83E00E94B60040E0622D84E00E9472
:10167000B600809175028130C1F44092800241E051
:1016800073E0371240E08B8D672D0E94C00C382E1E
:10169000692F86E00E94B60040E0632D87E038CFD6
:1016A0008230A9F650927D02D2CF823041F750921B
:1016B0008002E5CF809113018C5E8093130169CF86
:1016C0008091E00181110AC09AE39E1510F081E03B
:1016D0008E0DE82E2F2D4A2D612F23C0813009F069
:1016E00058CFC6010196E3E68E16910410F080ED06
:1016F00097E02F2D4A2D612F0E940C054ACF609153
:10170000E001611106C00B3310F461E0600F062F99
:10171000E1CF613009F03DCF1C3008F4610F2F2D6F
:101720004A2DC601E9CF4091E001411107C0F6E121
:10173000FF1510F041E04F0D242FCDCF413009F0BF
:1017400028CF2B8D2F3108F44A0D2F2DC5CF843093
:1017500009F4E5C008F48BC0853009F045CF8091CD
:10176000A30181110CC00E94600260939F017093DD
:10177000A0018093A1019093A2016092A3010E9415
:10178000600200919F011091A0012091A101309170
:10179000A201601B710B820B930B633371058105F2
:1017A000910508F421CF0E94200161E0892B09F006
:1017B00060E089E00E9444010E94600260939F0102
:1017C0007093A0018093A1019093A2010DCF90E0AE
:1017D00080E00E94AE0108CF8091130190E0F9CF24
:1017E0008091E7019091D701911104C08093D601B7
:1017F0006092D7019091D601891721F01092D501FE
:101800008093D6018091CD0181110CC00E946002AD
:101810006093C9017093CA018093CB019093CC016E
:101820006092CD010E9460020091C9011091CA012D
:101830002091CB013091CC01601B710B820B930B7B
:101840006B3071058105910578F08091D5018E5F2F
:101850008093D5010E9460026093C9017093CA0110
:101860008093CB019093CC018091D501B7CF80912B
:10187000E7019091C101911104C08093C001609271
:10188000C1019091C001891749F091E020911101A7
:10189000211190E0909311018093C0018091B801D3
:1018A00081110CC00E9460026093B4017093B50175
:1018B0008093B6019093B7016092B8010E946002D4
:1018C0000091B4011091B5012091B6013091B7019A
:1018D000601B710B820B930B6B30710581059105B9
:1018E000B0F08091100190911101992399F0813D00
:1018F00008F080ED8E5F809310010E94600260937B
:10190000B4017093B5018093B6019093B7018091B3
:10191000100164CF8C3008F48CE08250ECCF109131
:10192000E7018091AC01811104C01093AB0160927A
:10193000AC018091AB01181709F456CE0E9420012A
:1019400061E0892B09F060E089E00E944401109376
:10195000AB014ACEF999FECF92BD81BDF89A992785
:1019600080B50895262FF999FECF1FBA92BD81BD8B
:1019700020BD0FB6F894FA9AF99A0FBE0196089511
:10198000991B79E004C0991F961708F0961B881FD1
:101990007A95C9F780950895AA1BBB1B51E107C032
:1019A000AA1FBB1FA617B70710F0A61BB70B881FEF
:1019B000991F5A95A9F780959095BC01CD0108957E
:1019C00097FB072E16F4009407D077FD09D00E94EC
:1019D000CC0C07FC05D03EF4909581959F4F08955F
:1019E000709561957F4F0895A29FB001B39FC0018C
:1019F000A39F700D811D1124911DB29F700D811D3B
:101A00001124911D08950E94F40CA59F900DB49F80
:101A1000900DA49F800D911D11240895EE0FFF1FBE
:0C1A20000590F491E02D0994F894FFCF9C
:101A2C00100F0E0D0C0B0A0800010203040506072B
:101A3C0004010132C0F9A4B0999282F88090888395
:101A4C00C6A1868E00000000D804AB04B305880440
:101A5C00EE00980489044A616E2032332032303211
:0C1A6C00320032313A35373A343600008F
:00000001FF
